{
  "_format": "hh-sol-artifact-1",
  "contractName": "LiquidityExamples",
  "sourceName": "contracts/LiquidityExamples.sol",
  "abi": [
    {
      "inputs": [],
      "name": "DAI",
      "outputs": [
        {
          "internalType": "address",
          "name": "",
          "type": "address"
        }
      ],
      "stateMutability": "view",
      "type": "function"
    },
    {
      "inputs": [],
      "name": "USDC",
      "outputs": [
        {
          "internalType": "address",
          "name": "",
          "type": "address"
        }
      ],
      "stateMutability": "view",
      "type": "function"
    },
    {
      "inputs": [
        {
          "internalType": "uint256",
          "name": "",
          "type": "uint256"
        }
      ],
      "name": "deposits",
      "outputs": [
        {
          "internalType": "address",
          "name": "owner",
          "type": "address"
        },
        {
          "internalType": "uint128",
          "name": "liquidity",
          "type": "uint128"
        },
        {
          "internalType": "address",
          "name": "token0",
          "type": "address"
        },
        {
          "internalType": "address",
          "name": "token1",
          "type": "address"
        }
      ],
      "stateMutability": "view",
      "type": "function"
    },
    {
      "inputs": [],
      "name": "mintNewPosition",
      "outputs": [
        {
          "internalType": "uint256",
          "name": "tokenId",
          "type": "uint256"
        },
        {
          "internalType": "uint128",
          "name": "liquidity",
          "type": "uint128"
        },
        {
          "internalType": "uint256",
          "name": "amount0",
          "type": "uint256"
        },
        {
          "internalType": "uint256",
          "name": "amount1",
          "type": "uint256"
        }
      ],
      "stateMutability": "nonpayable",
      "type": "function"
    },
    {
      "inputs": [],
      "name": "nonfungiblePositionManager",
      "outputs": [
        {
          "internalType": "contract INonfungiblePositionManager",
          "name": "",
          "type": "address"
        }
      ],
      "stateMutability": "view",
      "type": "function"
    },
    {
      "inputs": [
        {
          "internalType": "address",
          "name": "operator",
          "type": "address"
        },
        {
          "internalType": "address",
          "name": "",
          "type": "address"
        },
        {
          "internalType": "uint256",
          "name": "tokenId",
          "type": "uint256"
        },
        {
          "internalType": "bytes",
          "name": "",
          "type": "bytes"
        }
      ],
      "name": "onERC721Received",
      "outputs": [
        {
          "internalType": "bytes4",
          "name": "",
          "type": "bytes4"
        }
      ],
      "stateMutability": "nonpayable",
      "type": "function"
    },
    {
      "inputs": [],
      "name": "poolFee",
      "outputs": [
        {
          "internalType": "uint24",
          "name": "",
          "type": "uint24"
        }
      ],
      "stateMutability": "view",
      "type": "function"
    }
  ],
  "bytecode": "0x608060405234801561001057600080fd5b5061104c806100206000396000f3fe608060405234801561001057600080fd5b506004361061007d5760003560e01c806389a302711161005b57806389a30271146100d8578063b02c43d0146100ed578063b44a272214610110578063e0bab4c4146101185761007d565b8063089fe6aa14610082578063150b7a02146100a0578063306d9c61146100c0575b600080fd5b61008a610120565b6040516100979190610fd4565b60405180910390f35b6100b36100ae366004610c98565b610125565b6040516100979190610ef9565b6100c861015c565b6040516100979493929190610fed565b6100e06103f0565b6040516100979190610e8e565b6101006100fb366004610d32565b610408565b6040516100979493929190610eaf565b6100e061045e565b6100e0610476565b606481565b6000610131868561048e565b507f150b7a020000000000000000000000000000000000000000000000000000000095945050505050565b600080808068056bc75e2d631000006305f5e1006101a3736b175474e89094c44da98b954eedeac495271d0f73c36442b4a4522e871399cd717abdd847ab11fe888461077a565b6101d673a0b86991c6218b36c1d19d4a2e9eb0ce3606eb4873c36442b4a4522e871399cd717abdd847ab11fe888361077a565b6040805161016081018252736b175474e89094c44da98b954eedeac495271d0f815273a0b86991c6218b36c1d19d4a2e9eb0ce3606eb4860208201526064818301527ffffffffffffffffffffffffffffffffffffffffffffffffffffffffffff276186060820152620d89e8608082015260a0810184905260c08101839052600060e08201819052610100820152306101208201524261014082015290517f8831645600000000000000000000000000000000000000000000000000000000815273c36442b4a4522e871399cd717abdd847ab11fe88906388316456906102c1908490600401610f26565b608060405180830381600087803b1580156102db57600080fd5b505af11580156102ef573d6000803e3d6000fd5b505050506040513d601f19601f820116820180604052508101906103139190610d4a565b92995090975095509350610327338861048e565b8285101561038757610363736b175474e89094c44da98b954eedeac495271d0f73c36442b4a4522e871399cd717abdd847ab11fe88600061077a565b848303610385736b175474e89094c44da98b954eedeac495271d0f338361094f565b505b818410156103e7576103c373a0b86991c6218b36c1d19d4a2e9eb0ce3606eb4873c36442b4a4522e871399cd717abdd847ab11fe88600061077a565b8382036103e573a0b86991c6218b36c1d19d4a2e9eb0ce3606eb48338361094f565b505b50505090919293565b73a0b86991c6218b36c1d19d4a2e9eb0ce3606eb4881565b600060208190529081526040902080546001820154600283015460039093015473ffffffffffffffffffffffffffffffffffffffff928316936fffffffffffffffffffffffffffffffff90921692918216911684565b73c36442b4a4522e871399cd717abdd847ab11fe8881565b736b175474e89094c44da98b954eedeac495271d0f81565b6040517f99fbab880000000000000000000000000000000000000000000000000000000081526000908190819073c36442b4a4522e871399cd717abdd847ab11fe88906399fbab88906104e5908790600401610fe4565b6101806040518083038186803b1580156104fe57600080fd5b505afa158015610512573d6000803e3d6000fd5b505050506040513d601f19601f820116820180604052508101906105369190610d85565b50505050975050505094509450505060405180608001604052808673ffffffffffffffffffffffffffffffffffffffff168152602001826fffffffffffffffffffffffffffffffff1681526020018473ffffffffffffffffffffffffffffffffffffffff1681526020018373ffffffffffffffffffffffffffffffffffffffff1681525060008086815260200190815260200160002060008201518160000160006101000a81548173ffffffffffffffffffffffffffffffffffffffff021916908373ffffffffffffffffffffffffffffffffffffffff16021790555060208201518160010160006101000a8154816fffffffffffffffffffffffffffffffff02191690836fffffffffffffffffffffffffffffffff16021790555060408201518160020160006101000a81548173ffffffffffffffffffffffffffffffffffffffff021916908373ffffffffffffffffffffffffffffffffffffffff16021790555060608201518160030160006101000a81548173ffffffffffffffffffffffffffffffffffffffff021916908373ffffffffffffffffffffffffffffffffffffffff1602179055509050506107226040518060400160405280600881526020017f546f6b656e20696400000000000000000000000000000000000000000000000081525085610b24565b6107736040518060400160405280600981526020017f4c69717569646974790000000000000000000000000000000000000000000000815250826fffffffffffffffffffffffffffffffff16610b24565b5050505050565b6040805173ffffffffffffffffffffffffffffffffffffffff8481166024830152604480830185905283518084039091018152606490920183526020820180517bffffffffffffffffffffffffffffffffffffffffffffffffffffffff167f095ea7b3000000000000000000000000000000000000000000000000000000001781529251825160009485949389169392918291908083835b6020831061084f57805182527fffffffffffffffffffffffffffffffffffffffffffffffffffffffffffffffe09092019160209182019101610812565b6001836020036101000a0380198251168184511680821785525050505050509050019150506000604051808303816000865af19150503d80600081146108b1576040519150601f19603f3d011682016040523d82523d6000602084013e6108b6565b606091505b50915091508180156108e45750805115806108e457508080602001905160208110156108e157600080fd5b50515b61077357604080517f08c379a000000000000000000000000000000000000000000000000000000000815260206004820152600260248201527f5341000000000000000000000000000000000000000000000000000000000000604482015290519081900360640190fd5b6040805173ffffffffffffffffffffffffffffffffffffffff8481166024830152604480830185905283518084039091018152606490920183526020820180517bffffffffffffffffffffffffffffffffffffffffffffffffffffffff167fa9059cbb000000000000000000000000000000000000000000000000000000001781529251825160009485949389169392918291908083835b60208310610a2457805182527fffffffffffffffffffffffffffffffffffffffffffffffffffffffffffffffe090920191602091820191016109e7565b6001836020036101000a0380198251168184511680821785525050505050509050019150506000604051808303816000865af19150503d8060008114610a86576040519150601f19603f3d011682016040523d82523d6000602084013e610a8b565b606091505b5091509150818015610ab9575080511580610ab95750808060200190516020811015610ab657600080fd5b50515b61077357604080517f08c379a000000000000000000000000000000000000000000000000000000000815260206004820152600260248201527f5354000000000000000000000000000000000000000000000000000000000000604482015290519081900360640190fd5b610c1e82826040516024018080602001838152602001828103825284818151815260200191508051906020019080838360005b83811015610b6f578181015183820152602001610b57565b50505050905090810190601f168015610b9c5780820380516001836020036101000a031916815260200191505b50604080517fffffffffffffffffffffffffffffffffffffffffffffffffffffffffffffffe08184030181529190526020810180517bffffffffffffffffffffffffffffffffffffffffffffffffffffffff167fb60e72cc000000000000000000000000000000000000000000000000000000001790529350610c2292505050565b5050565b80516a636f6e736f6c652e6c6f67602083016000808483855afa5050505050565b8051610c4e8161101a565b919050565b8051600281900b8114610c4e57600080fd5b80516fffffffffffffffffffffffffffffffff81168114610c4e57600080fd5b805162ffffff81168114610c4e57600080fd5b600080600080600060808688031215610caf578081fd5b8535610cba8161101a565b94506020860135610cca8161101a565b935060408601359250606086013567ffffffffffffffff80821115610ced578283fd5b818801915088601f830112610d00578283fd5b813581811115610d0e578384fd5b896020828501011115610d1f578384fd5b9699959850939650602001949392505050565b600060208284031215610d43578081fd5b5035919050565b60008060008060808587031215610d5f578384fd5b84519350610d6f60208601610c65565b6040860151606090960151949790965092505050565b6000806000806000806000806000806000806101808d8f031215610da7578687fd5b8c516bffffffffffffffffffffffff81168114610dc2578788fd5b9b50610dd060208e01610c43565b9a50610dde60408e01610c43565b9950610dec60608e01610c43565b9850610dfa60808e01610c85565b9750610e0860a08e01610c53565b9650610e1660c08e01610c53565b9550610e2460e08e01610c65565b94506101008d015193506101208d01519250610e436101408e01610c65565b9150610e526101608e01610c65565b90509295989b509295989b509295989b565b73ffffffffffffffffffffffffffffffffffffffff169052565b60020b9052565b62ffffff169052565b73ffffffffffffffffffffffffffffffffffffffff91909116815260200190565b73ffffffffffffffffffffffffffffffffffffffff94851681526fffffffffffffffffffffffffffffffff9390931660208401529083166040830152909116606082015260800190565b7fffffffff0000000000000000000000000000000000000000000000000000000091909116815260200190565b600061016082019050610f3a828451610e64565b6020830151610f4c6020840182610e64565b506040830151610f5f6040840182610e85565b506060830151610f726060840182610e7e565b506080830151610f856080840182610e7e565b5060a083015160a083015260c083015160c083015260e083015160e083015261010080840151818401525061012080840151610fc382850182610e64565b505061014092830151919092015290565b62ffffff91909116815260200190565b90815260200190565b9384526fffffffffffffffffffffffffffffffff9290921660208401526040830152606082015260800190565b73ffffffffffffffffffffffffffffffffffffffff8116811461103c57600080fd5b5056fea164736f6c6343000706000a",
  "linkReferences": {},
  "deployedLinkReferences": {}
}