{
  "_format": "hh-sol-artifact-1",
  "contractName": "SwapExamples",
  "sourceName": "contracts/SwapExamples.sol",
  "abi": [
    {
      "inputs": [],
      "name": "DAI",
      "outputs": [
        {
          "internalType": "address",
          "name": "",
          "type": "address"
        }
      ],
      "stateMutability": "view",
      "type": "function"
    },
    {
      "inputs": [],
      "name": "USDC",
      "outputs": [
        {
          "internalType": "address",
          "name": "",
          "type": "address"
        }
      ],
      "stateMutability": "view",
      "type": "function"
    },
    {
      "inputs": [],
      "name": "WETH9",
      "outputs": [
        {
          "internalType": "address",
          "name": "",
          "type": "address"
        }
      ],
      "stateMutability": "view",
      "type": "function"
    },
    {
      "inputs": [],
      "name": "poolFee",
      "outputs": [
        {
          "internalType": "uint24",
          "name": "",
          "type": "uint24"
        }
      ],
      "stateMutability": "view",
      "type": "function"
    },
    {
      "inputs": [
        {
          "internalType": "uint256",
          "name": "amountIn",
          "type": "uint256"
        }
      ],
      "name": "swapExactInputSingle",
      "outputs": [
        {
          "internalType": "uint256",
          "name": "amountOut",
          "type": "uint256"
        }
      ],
      "stateMutability": "nonpayable",
      "type": "function"
    },
    {
      "inputs": [
        {
          "internalType": "uint256",
          "name": "amountOut",
          "type": "uint256"
        },
        {
          "internalType": "uint256",
          "name": "amountInMaximum",
          "type": "uint256"
        }
      ],
      "name": "swapExactOutputSingle",
      "outputs": [
        {
          "internalType": "uint256",
          "name": "amountIn",
          "type": "uint256"
        }
      ],
      "stateMutability": "nonpayable",
      "type": "function"
    },
    {
      "inputs": [],
      "name": "swapRouter",
      "outputs": [
        {
          "internalType": "contract ISwapRouter",
          "name": "",
          "type": "address"
        }
      ],
      "stateMutability": "view",
      "type": "function"
    }
  ],
  "bytecode": "0x608060405234801561001057600080fd5b50610b3b806100206000396000f3fe608060405234801561001057600080fd5b506004361061007d5760003560e01c806389a302711161005b57806389a30271146100d5578063c31c9c07146100dd578063c4b69a18146100e5578063e0bab4c4146100f85761007d565b8063089fe6aa146100825780634aa4a4fc146100a057806373bd43ad146100b5575b600080fd5b61008a610100565b6040516100979190610b15565b60405180910390f35b6100a8610106565b6040516100979190610adf565b6100c86100c3366004610a1d565b61011e565b6040516100979190610b25565b6100a861027f565b6100a8610297565b6100c86100f3366004610a4d565b6102af565b6100a861046f565b610bb881565b73c02aaa39b223fe8d0a0e5c4f27ead9083c756cc281565b600061014073c02aaa39b223fe8d0a0e5c4f27ead9083c756cc2333085610487565b61017373c02aaa39b223fe8d0a0e5c4f27ead9083c756cc273e592427a0aece92de3edee1f18e0157c058615648461066c565b604080516101008101825273c02aaa39b223fe8d0a0e5c4f27ead9083c756cc28152736b175474e89094c44da98b954eedeac495271d0f6020820152610bb88183015233606082015242608082015260a08101849052600060c0820181905260e082015290517f414bf38900000000000000000000000000000000000000000000000000000000815273e592427a0aece92de3edee1f18e0157c058615649063414bf38990610226908490600401610b00565b602060405180830381600087803b15801561024057600080fd5b505af1158015610254573d6000803e3d6000fd5b505050506040513d601f19601f820116820180604052508101906102789190610a35565b9392505050565b73a0b86991c6218b36c1d19d4a2e9eb0ce3606eb4881565b73e592427a0aece92de3edee1f18e0157c0586156481565b60006102d173c02aaa39b223fe8d0a0e5c4f27ead9083c756cc2333085610487565b61030473c02aaa39b223fe8d0a0e5c4f27ead9083c756cc273e592427a0aece92de3edee1f18e0157c058615648461066c565b604080516101008101825273c02aaa39b223fe8d0a0e5c4f27ead9083c756cc28152736b175474e89094c44da98b954eedeac495271d0f6020820152610bb88183015233606082015242608082015260a0810185905260c08101849052600060e082015290517fdb3e219800000000000000000000000000000000000000000000000000000000815273e592427a0aece92de3edee1f18e0157c058615649063db3e2198906103b7908490600401610b00565b602060405180830381600087803b1580156103d157600080fd5b505af11580156103e5573d6000803e3d6000fd5b505050506040513d601f19601f820116820180604052508101906104099190610a35565b9150828210156104685761044773c02aaa39b223fe8d0a0e5c4f27ead9083c756cc273e592427a0aece92de3edee1f18e0157c05861564600061066c565b61046873c02aaa39b223fe8d0a0e5c4f27ead9083c756cc233848603610848565b5092915050565b736b175474e89094c44da98b954eedeac495271d0f81565b6040805173ffffffffffffffffffffffffffffffffffffffff85811660248301528481166044830152606480830185905283518084039091018152608490920183526020820180517bffffffffffffffffffffffffffffffffffffffffffffffffffffffff167f23b872dd00000000000000000000000000000000000000000000000000000000178152925182516000948594938a169392918291908083835b6020831061056457805182527fffffffffffffffffffffffffffffffffffffffffffffffffffffffffffffffe09092019160209182019101610527565b6001836020036101000a0380198251168184511680821785525050505050509050019150506000604051808303816000865af19150503d80600081146105c6576040519150601f19603f3d011682016040523d82523d6000602084013e6105cb565b606091505b50915091508180156105f95750805115806105f957508080602001905160208110156105f657600080fd5b50515b61066457604080517f08c379a000000000000000000000000000000000000000000000000000000000815260206004820152600360248201527f5354460000000000000000000000000000000000000000000000000000000000604482015290519081900360640190fd5b505050505050565b6040805173ffffffffffffffffffffffffffffffffffffffff8481166024830152604480830185905283518084039091018152606490920183526020820180517bffffffffffffffffffffffffffffffffffffffffffffffffffffffff167f095ea7b3000000000000000000000000000000000000000000000000000000001781529251825160009485949389169392918291908083835b6020831061074157805182527fffffffffffffffffffffffffffffffffffffffffffffffffffffffffffffffe09092019160209182019101610704565b6001836020036101000a0380198251168184511680821785525050505050509050019150506000604051808303816000865af19150503d80600081146107a3576040519150601f19603f3d011682016040523d82523d6000602084013e6107a8565b606091505b50915091508180156107d65750805115806107d657508080602001905160208110156107d357600080fd5b50515b61084157604080517f08c379a000000000000000000000000000000000000000000000000000000000815260206004820152600260248201527f5341000000000000000000000000000000000000000000000000000000000000604482015290519081900360640190fd5b5050505050565b6040805173ffffffffffffffffffffffffffffffffffffffff8481166024830152604480830185905283518084039091018152606490920183526020820180517bffffffffffffffffffffffffffffffffffffffffffffffffffffffff167fa9059cbb000000000000000000000000000000000000000000000000000000001781529251825160009485949389169392918291908083835b6020831061091d57805182527fffffffffffffffffffffffffffffffffffffffffffffffffffffffffffffffe090920191602091820191016108e0565b6001836020036101000a0380198251168184511680821785525050505050509050019150506000604051808303816000865af19150503d806000811461097f576040519150601f19603f3d011682016040523d82523d6000602084013e610984565b606091505b50915091508180156109b25750805115806109b257508080602001905160208110156109af57600080fd5b50515b61084157604080517f08c379a000000000000000000000000000000000000000000000000000000000815260206004820152600260248201527f5354000000000000000000000000000000000000000000000000000000000000604482015290519081900360640190fd5b600060208284031215610a2e578081fd5b5035919050565b600060208284031215610a46578081fd5b5051919050565b60008060408385031215610a5f578081fd5b50508035926020909101359150565b73ffffffffffffffffffffffffffffffffffffffff80825116835280602083015116602084015262ffffff60408301511660408401528060608301511660608401526080820151608084015260a082015160a084015260c082015160c08401528060e08301511660e0840152505050565b73ffffffffffffffffffffffffffffffffffffffff91909116815260200190565b6101008101610b0f8284610a6e565b92915050565b62ffffff91909116815260200190565b9081526020019056fea164736f6c6343000706000a",
  "linkReferences": {},
  "deployedLinkReferences": {}
}